:0400000007EF00F016
:0A0008007D820BED08F062EF0CF0B2
:10100000003738392F3435362A3132332D23303DED
:051010002B2569000022
:101016000600F2A811EF08F013EF08F01CEF08F035
:10102600F2A218EF08F01AEF08F01CEF08F008EC2F
:101036000DF0F0A621EF08F023EF08F02CEF08F0F2
:10104600F0A028EF08F02AEF08F02CEF08F006ECE5
:101056000DF0F0A831EF08F033EF08F03CEF08F0A0
:10106600F0A238EF08F03AEF08F03CEF08F004EC95
:101076000DF0F2A641EF08F043EF08F05EEF08F03E
:10108600F2A048EF08F04AEF08F05EEF08F081A8FA
:101096004FEF08F051EF08F05EEF08F06004D8A4B7
:1010A60057EF08F059EF08F05EEF08F0000E606E9B
:1010B600000ED1EC0CF0F2A663EF08F065EF08F035
:1010C60080EF08F0F2A06AEF08F06CEF08F080EF0E
:1010D60008F081B871EF08F073EF08F080EF08F0C0
:1010E6006050D8A479EF08F07BEF08F080EF08F0A5
:1010F600010E606E010ED1EC0CF0F2A685EF08F041
:1011060087EF08F0A2EF08F0F2A08CEF08F08EEF60
:1011160008F0A2EF08F081AA93EF08F095EF08F027
:10112600A2EF08F05F04D8A49BEF08F09DEF08F04B
:10113600A2EF08F0000E5F6E000EC4EC0CF0F2A6F3
:10114600A7EF08F0A9EF08F0C4EF08F0F2A0AEEFA1
:1011560008F0B0EF08F0C4EF08F081BAB5EF08F078
:10116600B7EF08F0C4EF08F05F50D8A4BDEF08F061
:10117600BFEF08F0C4EF08F0010E5F6E010EC4EC7D
:101186000CF0F2A6C9EF08F0CBEF08F0E6EF08F096
:10119600F2A0D0EF08F0D2EF08F0E6EF08F081AC4D
:1011A600D7EF08F0D9EF08F0E6EF08F05E04D8A410
:1011B600DFEF08F0E1EF08F0E6EF08F0000E5E6EF4
:1011C600000EB7EC0CF0F2A6EBEF08F0EDEF08F02E
:1011D60008EF09F0F2A0F2EF08F0F4EF08F008EFDC
:1011E60009F081BCF9EF08F0FBEF08F008EF09F011
:1011F6005E50D8A401EF09F003EF09F008EF09F0FB
:10120600010E5E6E010EB7EC0CF0F2A60DEF09F0C2
:101216000FEF09F02AEF09F0F2A014EF09F016EF2C
:1012260009F02AEF09F081AE1BEF09F01DEF09F076
:101236002AEF09F05D04D8A423EF09F025EF09F0A1
:101246002AEF09F0000E5D6E000EAAEC0CF0F2A675
:101256002FEF09F031EF09F04CEF09F0F2A036EF6D
:1012660009F038EF09F04CEF09F081BE3DEF09F0C7
:101276003FEF09F04CEF09F05D50D8A445EF09F0B7
:1012860047EF09F04CEF09F0010E5D6E010EAAEC76
:101296000CF09DAC51EF09F053EF09F05CEF09F04B
:1012A6009EAC58EF09F05AEF09F05CEF09F00EEC2E
:1012B6000DF0F2AA61EF09F063EF09F06CEF09F0A7
:1012C600F2A468EF09F06AEF09F06CEF09F0F4ECAC
:1012D6000CF09DA071EF09F073EF09F07CEF09F0B7
:1012E6009EA078EF09F07AEF09F07CEF09F0EEECBA
:1012F6000CF09DA281EF09F083EF09F08CEF09F065
:101306009EA288EF09F08AEF09F08CEF09F0FAEC5B
:101316000CF0A0A291EF09F093EF09F09CEF09F011
:10132600A1A298EF09F09AEF09F09CEF09F0E8EC1A
:101336000CF09DA8A1EF09F0A3EF09F0ACEF09F0BE
:101346009EA8A8EF09F0AAEF09F0ACEF09F0FEECB1
:101356000CF09DAAB1EF09F0B3EF09F0BCEF09F06C
:101366009EAAB8EF09F0BAEF09F0BCEF09F010EC4D
:101376000DF09DA6C1EF09F0C3EF09F0CCEF09F01F
:101386009EA6C8EF09F0CAEF09F0CCEF09F000EC11
:101396000DF0A0A6D1EF09F0D3EF09F0DCEF09F0CC
:1013A600A1A6D8EF09F0DAEF09F0DCEF09F002ECBC
:1013B6000DF09DA4E1EF09F0E3EF09F0ECEF09F081
:1013C6009EA4E8EF09F0EAEF09F0ECEF09F00CEC67
:1013D6000DF0A0A0F1EF09F0F3EF09F0FCEF09F032
:1013E600A1A0F8EF09F0FAEF09F0FCEF09F00AEC1A
:1013F6000DF07D921100010E726E6A506B10D8B41A
:1014060007EF0AF009EF0AF01AEF0AF06AC0D9FFEF
:101416006BC0DAFFDF30E832E832070B6C6E070E7E
:101426006C6418EF0AF01AEF0AF07DEF0AF0000E6E
:10143600726E9EEF0AF06AC0D9FF6BC0DAFFDF302A
:10144600E832E832070B6C6E010E6D6E6C2A2EEFD9
:101456000AF0D8906D366C2E2CEF0AF06D50FF0A0C
:101466006E6E6AC0D9FF6BC0DAFFDF50070B6F6E76
:101476006F50020D530EF324D96E000EF420DA6E6F
:10148600DECF70F0DDCF71F070C0D9FF71C0DAFF2A
:101496006E50DF169EEF0AF06AC0D9FF6BC0DAFF06
:1014A600DF30E832E832070B6C6E010E6D6E6C2A87
:1014B6005FEF0AF0D8906D366C2E5DEF0AF06AC0C9
:1014C600D9FF6BC0DAFFDF50070B6E6E6E50020D50
:1014D600530EF324D96E000EF420DA6EDECF6FF0D1
:1014E600DDCF70F06FC0D9FF70C0DAFF6D50DF122C
:1014F6009EEF0AF06AC0D9FF6BC0DAFFDFBC86EF49
:101506000AF089EF0AF0010E8AEF0AF0000E6C6EFF
:101516006D6A6D50000AD8B493EF0AF01AEF0AF01C
:101526006C50000AD8B41EEF0AF0010AD8B44FEF87
:101536000AF01AEF0AF072501200010E736E6A502A
:101546006B10D8B4A9EF0AF0ABEF0AF0BCEF0AF0C3
:101556006AC0D9FF6BC0DAFFDF30E832E832070B2A
:101566006D6E070E6D64BAEF0AF0BCEF0AF01FEF5E
:101576000BF0000E736E34EF0BF06AC0D9FF6BC030
:10158600DAFFDF30E832E832070B6D6E010E6E6E61
:101596006D2AD0EF0AF0D8906E366D2ECEEF0AF097
:1015A6006E50FF0A6F6E6AC0D9FF6BC0DAFFDF505C
:1015B600070B706E7050020D490EF324D96E000EA3
:1015C600F420DA6EDECF71F0DDCF72F071C0D9FF94
:1015D60072C0DAFF6F50DF1634EF0BF06AC0D9FF26
:1015E6006BC0DAFFDF30E832E832070B6D6E010EB2
:1015F6006E6E6D2A01EF0BF0D8906E366D2EFFEFF2
:101606000AF06AC0D9FF6BC0DAFFDF50070B6F6EB6
:101616006F50020D490EF324D96E000EF420DA6ED7
:10162600DECF70F0DDCF71F070C0D9FF71C0DAFF88
:101636006E50DF1234EF0BF06C506D6E6E6A6E50AA
:10164600000AD8B429EF0BF0BCEF0AF06D50000A7F
:10165600D8B4C0EF0AF0010AD8B4F1EF0AF0BCEF33
:101666000AF073501200010E776E74507510D8A4EC
:101676003FEF0BF041EF0BF045EF0BF0000E776EEE
:1016860074EF0BF043C078F074C0D9FF75C0DAFF71
:10169600DF500F0B766E78507618F80B7618786E4A
:1016A60074C0D9FF75C0DAFFDF38070B766E764651
:1016B6007646764678507618C70B7618786E789CFC
:1016C60074C0D9FF75C0DAFFDFAE02D0788E01D0C4
:1016D600789E780E6A6E000E6B6E010E6C6EA0EC34
:1016E6000AF077501200010E776E74507510D8A468
:1016F6007FEF0BF081EF0BF085EF0BF0000E776EAE
:10170600B4EF0BF042C078F074C0D9FF75C0DAFFB1
:10171600DF500F0B766E78507618F80B7618786EC9
:1017260074C0D9FF75C0DAFFDF38070B766E7646D0
:101736007646764678507618C70B7618786E789C7B
:1017460074C0D9FF75C0DAFFDFAE02D0788E01D043
:10175600789E780E6A6E000E6B6E000E6C6EA0ECB4
:101766000AF077501200010E7B6E78507910D8A4DB
:10177600BFEF0BF0C1EF0BF0C5EF0BF0000E7B6E69
:10178600F2EF0BF044C07CF078C0D9FF79C0DAFFE5
:10179600DF500F0B7A6E7C507A18F80B7A187C6E35
:1017A60078C0D9FF79C0DAFFDF38070B7A6E7A4640
:1017B6007A467A467C507A18C70B7A187C6E7C9CDF
:1017C60078C0D9FF79C0DAFFDFAE02D07C8E01D0B7
:1017D6007C9E7C0E746E000E756E2CEC0CF07B50AD
:1017E60012009DEC0CF0680E746E000E756E36ECF1
:1017F6000BF0670E746E000E756E76EC0BF0330E02
:101806000001956FBB0E946FDF0EE82EFED7942F66
:10181600FCD7952FFAD700D0680E746E000E756E41
:1018260076EC0BF0670E746E000E756E36EC0BF0F0
:10183600330E0001956FBB0E946FDF0EE82EFED7B8
:10184600942FFCD7952FFAD700D0F6EF0BF007EFC1
:1018560000F074507510D8B433EF0CF035EF0CF07F
:1018660046EF0CF074C0D9FF75C0DAFFDF30E832FE
:10187600E832070B766E070E766444EF0CF046EFFF
:101886000CF04AEF0CF0000E776E60EF0CF074C0AF
:101896006AF075C06BF0FEEC09F0776E74C06AF002
:1018A60075C06BF074C0D9FF75C0DAFF000EDFBEDD
:1018B600010E6C6EA0EC0AF0776E77501200BC0E2B
:1018C600F66E190EF76E000EF86E00EE80F010EE52
:1018D60014F00900F5CFEEFFE550E150FAE11A0EDB
:1018E600F66E190EF76E000EF86E00EE49F010EE69
:1018F60020F00900F5CFEEFFE550E150FAE100EEE9
:1019060001F0480EEE6AE806FDE17D907D92000149
:10191600F4EF0BF0890F8A0F8B0F8C0F8D0F920F40
:10192600930F940F950F960F01010101020A121AE7
:10193600222A1202680E786E000E796EB6EC0BF053
:10194600670E786E000E796EB6EC0BF01200696EBB
:10195600F2906950D8A4B2EF0CF0B4EF0CF0B6EFE9
:101966000CF0B6EF0CF01200696EF2906950D8A434
:10197600BFEF0CF0C1EF0CF0C3EF0CF0C3EF0CF0AF
:101986001200696EF2906950D8A4CCEF0CF0CEEF3D
:101996000CF0D0EF0CF0D0EF0CF01200696EF29064
:1019A6006950D8A4D9EF0CF0DBEF0CF0DDEF0CF0AA
:1019B600DDEF0CF01200800F810F820F830F840F72
:1019C600323A030B131B232B333BA1921250B36EF7
:1019D60011C0B2FF12009E901850CF6E17C0CEFFF6
:1019E6001200F2941C50D76E1BC0D6FF12009E92B6
:1019F60041C0CCFF12009D9812009E961200A1963F
:101A06001200F0921200F0901200F2921200A190D1
:0C1A160012009E9412009E9C1200120010
:020000040020DA
:08000000FFFFFFFFFFFFFFFF00
:020000040030CA
:0E000000FF020912FF8181FF0FC00FE00F40C9
:00000001FF
